:020000000B28CB
:10000800FF0003088316B5000A08B6005C2A6130B1
:10001800840070301620F701F801F901FA01FB019C
:10002800FC011E2864008001840A040603190034B8
:10003800040617287323D4237D1C20282420202875
:10004800ED01EE01E101E2017B088316A000A101A8
:10005800A01BA103831283168312EB070318EC0A73
:10006800831621088312EC077408803A8316A000CF
:1000780083126C08803A83162002031D46288312D7
:100088006B0873028316831203184E287408EC0059
:100098007308EB006C08803A8316A0008312760878
:1000A800803A83162002031D5C28831275086B02B0
:1000B80083160318642883127608EC007508EB0091
:1000C8008316A7010130A8008312831683126C08D7
:1000D8008316A60083126B088316A5006824831272
:1000E800831626088312E200831625088312E1008E
:1000F8008316831266088316A80083126508831680
:10010800A70083128316831262088316A60083123F
:1001180061088316A500E02483128316260883123B
:10012800E200831625088312E10010308316A70029
:10013800A80183128316831262088316A60083120D
:1001480061088316A5006824831283162608831283
:10015800E200831625088312E10077087B02ED0090
:10016800EE01031CEE03FB1BEE03F71BEE0A6E0801
:10017800803A8316A00080302002031DC6287930FB
:1001880083126D028316031CCD2878308312ED008C
:10019800EE0183126E08803A8316A0007F30200299
:1001A800031DD928883083126D0283160318E128AD
:1001B80088308312ED00FF30EE008312831683121D
:1001C80064088316A800831263088316A7008312A5
:1001D800831683126E088316A60083126D08831691
:1001E800A500E0248312831626088312EE008316E6
:1001F80025088312ED0005308316A00083126E0DCA
:10020800EE0CED0C8316A00B022983126E08803ABF
:100218008316A00080302002031D1529793083122F
:100228006D028316031C1C2978308312ED00EE0141
:1002380083126E08803A8316A0007F302002031DC7
:100248002829883083126D028316031830298830D4
:100258008312ED00FF30EE0083126D087B078316D2
:10026800A00083126E0803186E0AFB1BFF3E83165C
:10027800A10083126108831620078312E700620831
:100288000318620A831621078312E800E901E81BB4
:10029800E9036908EA00831683128316AC00831207
:1002A80069088316AB00831268088316AA008312B4
:1002B80067088316A900831270088316A5008312A5
:1002C80071088316A600A701A801AD242808A80074
:1002D8002708A7002608A6002508A500AC01AB0141
:1002E8000430AA000030A901FE22831283162808D0
:1002F8008312EA00831627088312E900831626086A
:100308008312E800831625088312E7006A08803AFA
:100318008316A00080302002031D9D29003083121F
:100328006902031D9D2903306802031D9D29E830D9
:10033800670283168312031CA729EA01E901033027
:10034800E800E830E7006A08803A8316A0007F30AA
:100358002002031DBA29FF3083126902031DBA293E
:10036800FC306802031DBA2919306702831683120C
:100378000318C529FF30EA00E900FC30E80018300E
:10038800E7006A08690468046704031DCE2995120A
:10039800951293016A08803A8316A00080302002E3
:1003A800031DE129003083126902031DE129003091
:1003B8006802031DE1290130670283168312031CBA
:1003C800182A95136708F200013A0319ED29151642
:1003D800EE2915127208023A0319F4299516F5291F
:1003E800951267088316A000831268088316A10077
:1003F800831269088316A20083126A088316A30071
:100408000230A400230DA30CA20CA10CA00CA40B79
:10041800062A200883129300F80A7808803A483E92
:10042800031C522A3730512A9517831683126808FD
:100438008316A600831267088316A500F924831281
:10044800831626088312FA00831625088312F900FA
:10045800F200013A0319322A1516332A15127208C6
:10046800023A0319392A95163A2A95127A088316F8
:10047800A100831279088316A000210DA10CA00CFD
:10048800210DA10CA00C200883129300F803780812
:10049800803AB73E0318522AC930F8006F08F700AF
:1004A8007C08EF007B08FC00FB017D1005120800AA
:1004B80083120B198B1E952A0A3081000B11051621
:1004C800F901FA011E08FA00F90183161E088312C1
:1004D80079078316B30083127A0803187A0A8316F9
:1004E800B4003308003E8312F90083163408031859
:1004F800013EFE3E8312FA0008308316B900BA01A5
:10050800831278088316B700B801B71BB8032324F1
:1005180083127908831637078312FB007D149F1412
:10052800982A8C010B108B107A08803A8316B30036
:1005380080303302031DA32AB53083127902831653
:100548008312031CC72A951215129301F801F701AB
:10055800EF01FC01FB010512031000300318013004
:10056800EB00EC016C08EE006B08ED006E08E20091
:100578006D08E100E7006208E8000030E81BFF3082
:10058800E900EA007D107A08803A8316B3007F30CC
:100598003302031DD22A4C308312790283160318C2
:1005A800F62A8312951215129301F801F701EF014B
:1005B800FC01FB0105120310003003180130EB00A9
:1005C800EC016C08EE006B08ED006E08E2006D08A7
:1005D800E100E7006208E8000030E81BFF30E900AE
:1005E800EA007D10831636088A0035088300FF0E5E
:1005F8007F0E0900AD01AC1F0E2BA909AA09AB0992
:10060800AC09A90A0319AA0A0319AB0A0319AC0A07
:10061800AD01AD0AA81F1D2BA509A609A709A809A0
:10062800A50A0319A60A0319A70A0319A80A01307B
:10063800AD06AF01B001B101B2012C082B042A04A8
:10064800290403195C2BAE01AE0A0310AC1B322B34
:10065800A90DAA0DAB0DAC0D282B0310AF0DB00DD5
:10066800B10DB20D2C082802031D442B2B082702BC
:10067800031D442B2A082602031D442B29082502A2
:10068800031C562B2908A5022A08031C2A0FA602B8
:100698002B08031C2B0FA7022C08031C2C0FA802E5
:1006A8002F140310AC0CAB0CAA0CA90CAE0B312BFD
:1006B800AD0803196A2BAF09B009B109B209AF0A2D
:1006C8000319B00A0319B10A0319B20A3208A800BB
:1006D8003108A7003008A6002F08A50008008501EA
:1006E8002D30831685008312870103308316870017
:1006F80007308312990083160F168F160F174C3088
:100708008312950097013F3083169200831292015D
:100718009301121535308316910083121F139F170A
:1007280083161F169F121F1783121F119F111F1266
:100738001F14F701EF01FC01FB01E301E401E501EE
:10074800E601F801F001F101F01BF103ED01EE0102
:10075800E101E201F901FA013030F3007530F400EB
:1007680001308316A00083127308831620028312B7
:10077800F50074090318013EF6007D1483168112F2
:100788000A3083128100831681110110811001152E
:1007980083128B0183168C0183128B168B1708002A
:1007A800831611151116911683129F171F119F1189
:1007B8001F16C830F200E12BF203F208031DE02BEC
:1007C8009F149F18E52BF2011E08E600E501831629
:1007D8001E088312E5070318E60A1F159F111F1646
:1007E800C830F200F2080319FB2BF203F62B9F1412
:1007F8009F18FC2BF2011E08E400E30183161E0873
:100808008312E3070318E40A1F119F151F12C8304B
:10081800F200F2080319122CF2030D2C9F149F18F2
:10082800132CF2011E08F100F00183161E08831232
:10083800F0070318F10A1F119F111F120800BB01CE
:10084800BA1F2D2CB909BA09B90A0319BA0ABB018A
:10085800BB0AB81F362CB709B809B70A0319B80A72
:100868000130BB06BD01BE013A08390403195B2CEF
:10087800BC01BC0A0310BA1B452CB90DBA0D3D2C9E
:100888000310BD0DBE0D3A083802031D4D2C390862
:100898003702031C572C3908B7023A08031CB8035F
:1008A800B8023D140310BA0CB90CBC0B442CBB089D
:1008B8000319632CBD09BE09BD0A0319BE0A3E0807
:1008C800B8003D08B7000800AA01A81F722CA709A4
:1008D800A809A70A0319A80AAA01AA0AA61F7B2C15
:1008E800A509A609A50A0319A60A0130AA06AB019B
:1008F800AC01280827040319A02CA901A90A031090
:10090800A81B8A2CA70DA80D822C0310AB0DAC0DCB
:1009180028082602031D922C27082502031C9C2C5C
:100928002708A5022808031CA603A6022B140310F7
:10093800A80CA70CA90B892CAA080319A82CAB0989
:10094800AC09AB0A0319AC0A2C08A6002B08A500B1
:100958000800AD01AE01AF01B001251CC72C290864
:10096800AD072A08031103182A0A031DAE072B082E
:10097800031103182B0A031DAF072C0803110318D2
:100988002C0A031DB0070310A90DAA0DAB0DAC0D61
:100998000310A80CA70CA60CA50C280827042604ED
:1009A8002504031DB12C3008A8002F08A7002E0825
:1009B800A6002D08A5000800A901AA01251CEA2CFB
:1009C8002708A9070318AA0A2808AA070310A70DC9
:1009D800A80D0310A60CA50C26082504031DE22C5F
:1009E8002A08A6002908A5000800A61F080026084E
:1009F800A8002508A700A709A809A70A0319A80A93
:0A0A08002708A5002808A600080032
:00000001FF
