:020000040000FA
:100000000B28FF3FFF3FFF3FFF0003088316B500AB
:100010000A08B6005A2A5F30840070301420F901B3
:10002000FA01FB01FC011C2864008001840A04061B
:1000300003190034040615287523D8237D1C1E28B7
:1000400022201E28EB01EC01DF01E0017B08831672
:10005000A000A101A01BA103831283168312E9074C
:100060000318EA0A831621088312EA077408803A03
:100070008316A00083126A08803A83162002031DAB
:1000800044288312690873028316831203184C28CC
:100090007408EA007308E9006A08803A8316A00031
:1000A00083127608803A83162002031D5A28831291
:1000B0007508690283160318622883127608EA001D
:1000C0007508E9008316A7010130A8008312831682
:1000D00083126A088316A600831269088316A50096
:1000E0006C248312831626088312E00083162508E9
:1000F0008312DF008316831264088316A80083121C
:1001000063088316A7008312831683126008831680
:10011000A60083125F088316A500E42483128316C9
:1001200026088312E000831625088312DF001030B2
:100130008316A700A8018312831683126008831612
:10014000A60083125F088316A5006C248312831611
:1001500026088312E000831625088312DF006E084C
:100160007B02EB00EC01031CEC03FB1BEC03EE1B1E
:10017000EC0A6C08803A8316A00080302002031D30
:10018000C428793083126B028316031CCB28783085
:100190008312EB00EC0183126C08803A8316A000F6
:1001A0007F302002031DD728883083126B0283160C
:1001B0000318DF2888308312EB00FF30EC00831235
:1001C0008316831262088316A800831261088316BF
:1001D000A7008312831683126C088316A60083126D
:1001E0006B088316A500E424831283162608831265
:1001F000EC00831625088312EB0005308316A0005F
:1002000083126C0DEC0CEB0C8316A00B00298312EF
:100210006C08803A8316A00080302002031D132949
:10022000793083126B028316031C1A2978308312EB
:10023000EB00EC0183126C08803A8316A0007F303B
:100240002002031D2629883083126B0283160318AF
:100250002E2988308312EB00FF30EC0083126B08EC
:100260007B078316A00083126C0803186C0AFB1B23
:10027000FF3E8316A10083125F08831620078312B6
:10028000E50060080318600A831621078312E60060
:10029000E701E61BE7036708E8008316831283166D
:1002A000AC00831267088316AB00831266088316BE
:1002B000AA00831265088316A900831277088316A3
:1002C000A500831278088316A600A701A801B1240F
:1002D0002808A8002708A7002608A6002508A500CA
:1002E000AC01AB010430AA000030A9010023831245
:1002F000831628088312E800831627088312E70074
:10030000831626088312E600831625088312E5006B
:100310006808803A8316A00080302002031D9B29C4
:10032000003083126702031D9B2903306602031D00
:100330009B29E830650283168312031CA529E80176
:10034000E7010330E600E830E5006808803A8316EC
:10035000A0007F302002031DB829FF3083126702FE
:10036000031DB829FC306602031DB8291930650247
:10037000831683120318C329FF30E800E700FC301E
:10038000E6001830E5006808670466046504031D8C
:10039000CC299512951293016808803A8316A00023
:1003A00080302002031DDF29003083126702031D05
:1003B000DF2900306602031DDF2901306502831644
:1003C0008312031C162A95136508F000013A0319DD
:1003D000EB291516EC2915127008023A0319F229B7
:1003E0009516F329951265088316A00083126608F6
:1003F0008316A100831267088316A200831268087F
:100400008316A3000230A400230DA30CA20CA10CA0
:10041000A00CA40B042A200883129300EF0A6F0893
:10042000803A483E031C502A37304F2A95178316CE
:10043000831266088316A600831265088316A5003A
:10044000FD248312831626088312FA0083162508DA
:100450008312F900F000013A0319302A1516312AE7
:1004600015127008023A0319372A9516382A951280
:100470007A088316A100831279088316A000210D43
:10048000A10CA00C210DA10CA00C2008831293003C
:10049000EF036F08803AB73E0318502AC930EF00C7
:1004A0006D08EE007C08ED007B08FC00FB017D1070
:1004B0000512080083120B198B1E932A0A30810043
:1004C0000B110516F901FA011E08FA00F90183164D
:1004D0001E08831279078316B30083127A08031863
:1004E0007A0A8316B4003308003E8312F90083169B
:1004F00034080318013EFE3E8312FA0008308316CA
:10050000B900BA0183126F088316B700B801B71B90
:10051000B803272483127908831637078312FB0058
:100520007D149F14962A8C010B108B107A08803A48
:100530008316B30080303302031DA12AB530831225
:10054000790283168312031CC72A95121512930190
:10055000EF01F201F101EE01ED01FC01FB010512D9
:100560000310003003180130E900EA016A08EC00CA
:100570006908EB006C08E0006B08DF00E50060082C
:10058000E6000030E61BFF30E700E8007D107A0847
:10059000803A8316B3007F303302031DD22A4C30D9
:1005A0008312790283160318F82A83129512151202
:1005B0009301EF01F201F101EE01ED01FC01FB01FC
:1005C00005120310003003180130E900EA016A083F
:1005D000EC006908EB006C08E0006B08DF00E50048
:1005E0006008E6000030E61BFF30E700E8007D1001
:1005F000831636088A0035088300FF0E7F0E090037
:10060000AD01AC1F102BA909AA09AB09AC09A90AB5
:100610000319AA0A0319AB0A0319AC0AAD01AD0A02
:10062000A81F1F2BA509A609A709A809A50A031930
:10063000A60A0319A70A0319A80A0130AD06AF01DB
:10064000B001B101B2012C082B042A0429040319BA
:100650005E2BAE01AE0A0310AC1B342BA90DAA0D04
:10066000AB0DAC0D2A2B0310AF0DB00DB10DB20DBB
:100670002C082802031D462B2B082702031D462B9E
:100680002A082602031D462B29082502031C582B85
:100690002908A5022A08031C2A0FA6022B08031CFE
:1006A0002B0FA7022C08031C2C0FA8022F140310D9
:1006B000AC0CAB0CAA0CA90CAE0B332BAD08031978
:1006C0006C2BAF09B009B109B209AF0A0319B00A1E
:1006D0000319B10A0319B20A3208A8003108A700A9
:1006E0003008A6002F08A500080085012D308316CC
:1006F0008500831287010330831687000730831239
:10070000990083160F168F160F174C308312950021
:1007100097013F30831692008312920193011215C4
:1007200035308316910083121F139F1783161F16EF
:100730009F121F1783121F119F111F121F14F20106
:10074000F101EE01ED01FC01FB01E101E201E30138
:10075000E401EF01F701F801F71BF803EB01EC01ED
:10076000DF01E001F901FA013030F3007530F400E7
:1007700001308316A00083127308831620028312AF
:10078000F50074090318013EF6007D1483168112EA
:100790000A30831281008316811101108110011526
:1007A00083128B0183168C0183128B168B17080022
:1007B000831611151116911683129F171F119F1181
:1007C0001F16C830F000E52BF003F008031DE42BE2
:1007D0009F149F18E92BF0011E08E400E301831623
:1007E0001E088312E3070318E40A1F159F111F1642
:1007F000C830F000F0080319FF2BF003FA2B9F1408
:100800009F18002CF0011E08E200E10183161E086B
:100810008312E1070318E20A1F119F151F12C83047
:10082000F000F0080319162CF003112C9F149F18E8
:10083000172CF0011E08F800F70183161E0883121A
:10084000F7070318F80A1F119F111F120800BB01B8
:10085000BA1F312CB909BA09B90A0319BA0ABB017E
:10086000BB0AB81F3A2CB709B809B70A0319B80A66
:100870000130BB06BD01BE013A08390403195F2CE3
:10088000BC01BC0A0310BA1B492CB90DBA0D412C8E
:100890000310BD0DBE0D3A083802031D512C390856
:1008A0003702031C5B2C3908B7023A08031CB80353
:1008B000B8023D140310BA0CB90CBC0B482CBB0891
:1008C0000319672CBD09BE09BD0A0319BE0A3E08FB
:1008D000B8003D08B7000800AA01A81F762CA70998
:1008E000A809A70A0319A80AAA01AA0AA61F7F2C09
:1008F000A509A609A50A0319A60A0130AA06AB0193
:10090000AC01280827040319A42CA901A90A031083
:10091000A81B8E2CA70DA80D862C0310AB0DAC0DBB
:1009200028082602031D962C27082502031CA02C4C
:100930002708A5022808031CA603A6022B140310EF
:10094000A80CA70CA90B8D2CAA080319AC2CAB0979
:10095000AC09AB0A0319AC0A2C08A6002B08A500A9
:100960000800AD01AE01AF01B001251CCB2C290858
:10097000AD072A08031103182A0A031DAE072B0826
:10098000031103182B0A031DAF072C0803110318CA
:100990002C0A031DB0070310A90DAA0DAB0DAC0D59
:1009A0000310A80CA70CA60CA50C280827042604E5
:1009B0002504031DB52C3008A8002F08A7002E0819
:1009C000A6002D08A5000800A901AA01251CEE2CEF
:1009D0002708A9070318AA0A2808AA070310A70DC1
:1009E000A80D0310A60CA50C26082504031DE62C53
:1009F0002A08A6002908A5000800A61F0800260846
:100A0000A8002508A700A709A809A70A0319A80A8A
:100A10002708A5002808A6000800FF3FFF3FFF3F6A
:100A2000FF3FFF3FFF3FFF3FFF3FFF3FFF3FFF3FD6
:100A3000FF3FFF3FFF3FFF3FFF3FFF3FFF3FFF3FC6
:100A4000FF3FFF3FFF3FFF3FFF3FFF3FFF3FFF3FB6
:100A5000FF3FFF3FFF3FFF3FFF3FFF3FFF3FFF3FA6
:02400E00E43F8D
:08400000FF3FFF3FFF3FFF3FC0
:00000001FF
